:020000040800F2
:10000000700600206D0100087501000877010008E6
:10001000790100087B0100087D0100080000000054
:100020000000000000000000000000007F01000848
:10003000810100080000000083010008A1070008FA
:100040008701000887010008870100088701000870
:100050008701000887010008870100088701000860
:100060008701000887010008870100088701000850
:100070008701000887010008870100088701000840
:100080008701000887010008870100088701000830
:100090004D08000887010008870100088701000853
:1000A0008701000887010008870100088701000810
:1000B0008701000887010008870100088701000800
:1000C00087010008870100088701000887010008F0
:1000D0008701000829080008870100088701000837
:1000E00087010008870100088701000800F002F876
:1000F00000F02CF80AA090E8000C82448344AAF196
:100100000107DA4501D100F021F8AFF2090EBAE893
:100110000F0013F0010F18BFFB1A43F0010318473B
:10012000680800007808000000230024002500264D
:10013000103A28BF78C1FBD8520728BF30C148BF4A
:100140000B6070471FB51FBD10B510BD00F031F832
:100150001146FFF7F7FF00F097FB00F04FF803B4EC
:10016000FFF7F2FF03BC00F057F800000948804792
:1001700009480047FEE7FEE7FEE7FEE7FEE7FEE789
:10018000FEE7FEE7FEE7FEE704480549054A064BA1
:1001900070470000D1070008ED0000087000002043
:1001A0007006002070020020700200207047704727
:1001B0007047754600F02CF8AE4605006946534678
:1001C00020F00700854618B020B5FFF7DDFFBDE839
:1001D00020404FF000064FF000074FF000084FF0AE
:1001E000000BAC46ACE8C009ACE8C009ACE8C009FB
:1001F000ACE8C00921F007018D46704710B50446F0
:10020000AFF300802046BDE81040FFF7A8BF000014
:10021000004870470000002001491820ABBEFEE7EF
:1002200026000200704700002DE9F04746F2046105
:10023000C4F20001D0E9003890F809E051F8042C2C
:10024000012642F0010241F8042C8D6906FA0EF2F3
:1002500025EA02068E61857A6FEA020C012D38D0FC
:10026000002D4CD16FF01F0606EA1349C3F3C234C8
:100270008E6803F0020706EA0C068E6003F0040A9B
:1002800044EAC704067A44EA4A04002E04EB09064D
:1002900005D00C6846EA064614430C6013E0C8F328
:1002A000C23408F0020744EAC7090C6808F00407E2
:1002B00004EA0C040C6044466FF3140449EA47074F
:1002C000344444EA074601EBCE04012DE66326647C
:1002D00015D18C6814438C60047A0D683CB145EAF2
:1002E000020401EBCE070C60FB633B6407E005EA08
:1002F0000C0401EBCE070C60FB63C7F84080C37AA7
:10030000012B04D033B90B6903EA0C0301E00B693C
:1003100013430B61007B012802D188691043886177
:1003200051F8040C20F0010041F8040CBDE8F087FE
:1003300080B546F20042C4F20002136823F00203C3
:100340001360036843F00103036000BF53689B0719
:10035000FCD45368DB07F9D091F806C00368BCF100
:10036000010F23F0800208BF43F08002026091F881
:1003700007C00368BCF1010F23F0400208BF43F03F
:100380004002026091F808C00368BCF1010F23F03D
:10039000200208BF43F02002026091F809C0036800
:1003A000BCF1010F23F0100208BF43F010020260FD
:1003B00091F80BC00368BCF1010F23F0040208BFE1
:1003C00043F004020260CB7891F802C00A791B0660
:1003D00091F805E043EA8C73098843EA024242EA55
:1003E0000E5201391143C161016821F00101016020
:1003F00080BD000032B1012A18BF70474269114325
:1004000041617047426922EA010141617047000081
:10041000F0B500EB0115D5F8B431032403F00F0358
:100420001372D5F8B06116F004061670D5F8B061F5
:1004300006F002065670D5F8B4614FEA16265674D7
:10044000D5F8B06108BF1524E6405660CBB105F57C
:10045000DE7C05F5DC7E093200246FF01F0508E024
:10046000DCF80060EE4016550134A34205F10805A2
:1004700007D0032CF4D8DEF8006005F12007FE4019
:10048000F1E7012904D0002918BFF0BD0C3000E0CD
:100490001030016841F020010160F0BD80B50228F4
:1004A0000AD0012823D008BB072934D888004FF090
:1004B0000F0C40F6000E4FE0A1F10D00C0B2022873
:1004C00088BF80BDA1F1080040F6044EC0B2C4F25E
:1004D000010E80004FF00F0CDEF800140CFA00F350
:1004E000994302FA00F00843CEF8000480BD0729C2
:1004F00028D840F6000EC4F2010E88004FF00F0C11
:10050000DEF800140CFA00F3994302FA00F00843F5
:10051000CEF8000480BD0F29E8D8A1F1080040F60C
:10052000000EC0B2C4F2010E80004FF00F0CDEF8D6
:1005300004100CFA00F3994302FA00F00843CEF8D5
:10054000040080BD0F29D1D8A1F10800C0B28000FD
:100550004FF00F0C40F6044EC4F2010EDEF800100E
:100560000CFA00F3994302FA00F00843CEF80000B9
:1005700080BD000002281FD001280ED000284FD1D6
:1005800052B3012A4CD140F60C02C4F20102012000
:100590001368884018431060704742B3012A3FD166
:1005A00040F60C02C4F201020120D2F80034884067
:1005B0001843C2F80004704732B3012A18BF7047CD
:1005C00040F60C02C4F201020120D2F80038884043
:1005D0001843C2F80008704740F60C02C4F201024A
:1005E00001201368884023EA00001060704740F63D
:1005F0000C02C4F201020120D2F80034884023EA40
:100600000000C2F80004704740F60C02C4F2010278
:100610000120D2F80038884023EA0000C2F8000820
:10062000704700001F2808D8012101FA00F04EF29F
:100630000011CEF20001086070473B2888BF704768
:100640002038C0B2012101FA00F04EF20011CEF2C2
:10065000000148607047000041F20000C4F202004F
:10066000026842F480319203016000D4FEE74268E0
:1006700041F67C33CFF6FF331A40013221F440219A
:10068000C0E90012704700001F2919D802280ED0B7
:10069000012816D0002818BF704741F21402C4F296
:1006A000020201201368884018431060704741F22D
:1006B0001402C4F2020201205368884018435060BB
:1006C000704741F21402C4F202020120936888408C
:1006D000184390607047000080B500F001F880BDBD
:1006E00082B041F204000021C4F2020001910091A5
:1006F00050F8041C41F4803140F8041C50F8041CEC
:1007000001F400310091019901310191009919B969
:100710000199B1F5A06FF1D150F8041C890354BFC1
:100720000021012100910099012936D142F20001F6
:10073000C4F202010A6842F010020A600A6822F05C
:1007400003020A600A6842F002020A60016801605E
:1007500001680160016841F480610160016821F471
:100760007C110160016841F4E811016050F8041C3B
:1007700041F0807140F8041C50F8041C8901FBD53D
:10078000016821F003010160016841F0020101608C
:10079000016801F00C010829FAD102B0704700008D
:1007A00080B54EF21000CEF20000016821F0020187
:1007B0000160016841F00101016000214160816038
:1007C00040F26000C2F200000068804780BD000077
:1007D00080B541F20000C4F202000168002241F03D
:1007E000010101604168CFF6FF02114041600168DC
:1007F0004FF6FF72CFF6F66211400160016821F4F6
:1008000080210160416821F4FE0141604FF41F0125
:100810008160FFF761FF4EF60850CEF200004FF006
:100820000061016080BD000080B543F60000C4F2A5
:1008300001000168890658BF80BD40F26801C2F21C
:10084000000109684068C0B2884780BD10B546F213
:100850000044C4F2000404F5244002210122FFF701
:1008600089FEE068800701D0002104E0206980074C
:1008700008BF10BD012140F26402C2F2000220460E
:10088000FFF7C6FD10BD000090B040F64C10C0F65A
:1008900000008268D0E900100F92CDE90D1040F6FB
:1008A0005810C0F60000D0E90012C3688068CDE996
:1008B0000B0340F66810C0F60000CDE90912D0E93C
:1008C0000012C3688068CDE9070340F67810C0F6CF
:1008D0000000CDE90512D0E90012C3688068CDE9B7
:1008E0000303CDE90112FFF7B7FE02200221FFF753
:1008F000CBFE02200021FFF7C7FE01201921FFF7E0
:10090000C3FE1420FFF78EFE00200B210422FFF708
:10091000C5FD00200C210A22FFF7C0FD46F200446D
:10092000C4F200040DA92046FFF702FD2046022173
:100930000122FFF75FFD09A8FFF776FC05A8FFF786
:1009400073FC01A8FFF770FCFEE700000100000047
:100950000B040000000000000000600000006000C8
:100960000101010001000000000040000000400003
:100970000102010001000000000020000000200032
:100980000103010001000000980900080000002098
:080990007006000028010008B8
:040000050800016D81
:00000001FF
