:020000040800F2
:10000000980600206D0100087501000877010008BE
:10001000790100087B0100087D0100080000000054
:100020000000000000000000000000007F01000848
:100030008101000800000000830100081906000883
:100040008701000887010008870100088701000870
:1000500087010008870100082902000849020008FA
:10006000690200088701000887010008870100086D
:100070008701000887010008870100088701000840
:100080008701000887010008870100088701000830
:100090008701000887010008870100088701000820
:1000A0008701000887010008870100088701000810
:1000B0008701000887010008000000008701000890
:1000C0008701000800000000000000008701000810
:1000D0000000000087010008870100080000000000
:1000E00087010008870100088701000800F002F876
:1000F00000F02CF80AA090E8000C82448344AAF196
:100100000107DA4501D100F021F8AFF2090EBAE893
:100110000F0013F0010F18BFFB1A43F0010318473B
:100120006006000070060000002300240025002661
:10013000103A28BF78C1FBD8520728BF30C148BF4A
:100140000B6070471FB51FBD10B510BD00F031F832
:100150001146FFF7F7FF00F0D3FA00F04FF803B4B1
:10016000FFF7F2FF03BC00F057F800000948804792
:1001700009480047FEE7FEE7FEE7FEE7FEE7FEE789
:10018000FEE7FEE7FEE7FEE704480549054A064BA1
:100190007047000055060008ED0000089800002098
:1001A00098060020980200209802002070477047AF
:1001B0007047754600F02CF8AE4605006946534678
:1001C00020F00700854618B020B5FFF7DDFFBDE839
:1001D00020404FF000064FF000074FF000084FF0AE
:1001E000000BAC46ACE8C009ACE8C009ACE8C009FB
:1001F000ACE8C00921F007018D46704710B50446F0
:10020000AFF300802046BDE81040FFF7A8BF000014
:10021000004870470000002001491820ABBEFEE7EF
:10022000260002007047000080B540F26000C2F274
:1002300000000068804740F21440C4F201000168E9
:1002400041F00101016080BD80B540F26400C2F25E
:1002500000000068804740F21440C4F201000168C9
:1002600041F00201016080BD80B540F26800C2F239
:1002700000000068804740F21440C4F201000168A9
:1002800041F00401016080BD80B502280BD0012837
:100290001DD000285DD107292DD888004FF0010C12
:1002A00040F6000E60E007293CD840F6044EC4F248
:1002B000010E88004FF0010CDEF8FC130CFA00F37D
:1002C000994302FA00F00843CEF8FC0380BD0729E9
:1002D00040D840F6000EC4F2010E88004FF0010C29
:1002E000DEF800140CFA00F3994302FA00F0084318
:1002F000CEF8000480BD0F292BD8A1F1080040F6EC
:10030000000EC0B2C4F2010E80004FF0010CDEF806
:1003100004100CFA00F3994302FA00F00843CEF8F7
:10032000040080BD0F2988BF80BDA1F1080040F600
:10033000044EC0B2C4F2010E80004FF0010CDEF892
:1003400000140CFA00F3994302FA00F00843CEF8C7
:10035000000480BD0F29FCD8A1F10800C0B28000C4
:100360004FF0010C40F6044EC4F2010EDEF800100E
:100370000CFA00F3994302FA00F00843CEF80000AB
:1003800080BD000002281FD001280ED000284FD1C8
:1003900052B3012A4CD140F60C02C4F201020120F2
:1003A0001368884018431060704742B3012A3FD158
:1003B00040F60C02C4F201020120D2F80034884059
:1003C0001843C2F80004704732B3012A18BF7047BF
:1003D00040F60C02C4F201020120D2F80038884035
:1003E0001843C2F80008704740F60C02C4F201023C
:1003F00001201368884023EA00001060704740F62F
:100400000C02C4F201020120D2F80034884023EA31
:100410000000C2F80004704740F60C02C4F201026A
:100420000120D2F80038884023EA0000C2F8000812
:100430007047000080B540F26C0C00EB4000C2F247
:10044000000C0CEB800E2CF82010CEF80420AEF837
:10045000083080BD80B500F03BF840F21951C0F67D
:1004600000014FF47A7000F03DF880BD41F20000C9
:10047000C4F202004FF480310122C0E9001270473B
:100480001F2919D802280ED0012816D0002818BF1D
:10049000704741F21402C4F202020120136888403E
:1004A00018431060704741F21402C4F202020120A6
:1004B0005368884018435060704741F21402C4F2F8
:1004C0000202012093688840184390607047000042
:1004D0004EF21000CEF20000016841F0040101600C
:1004E000704700004EF21002CEF200025060106819
:1004F00040F00100106040F29000C2F20000016084
:1005000040F29400C2F2000001210170106840F036
:100510000200106070470000B0B540F26C05002486
:10052000C2F2000506E0511E018100BF0C34242CEC
:1005300008BFB0BD281941680029F7D0827A002A87
:10054000F4D10289002AEED12A5B02818847EDE7C7
:1005500080B500F001F880BD82B041F204000021B6
:10056000C4F202000191009150F8041C41F4803162
:1005700040F8041C50F8041C01F40031009101996A
:1005800001310191009919B90199B1F5A06FF1D12B
:1005900050F8041C890354BF0021012100910099E7
:1005A000012936D142F20001C4F202010A6842F088
:1005B00010020A600A6822F003020A600A6842F028
:1005C00002020A600168016001680160016841F48B
:1005D00080610160016821F47C110160016841F4CF
:1005E000E811016050F8041C41F0807140F8041CCF
:1005F00050F8041C8901FBD5016821F0030101605A
:10060000016841F002010160016801F00C01082954
:10061000FAD102B07047000010B540F29400C2F267
:10062000000000784EF21004CEF2000450B92068A9
:1006300020F002002060206840F0010020600020CF
:100640006060A06040F29000C2F200000068804745
:10065000206810BD80B541F20000C4F202000168BC
:10066000002241F0010101604168CFF6FF02114014
:10067000416001684FF6FF72CFF6F66211400160EB
:10068000016821F480210160416821F4FE0141608C
:100690004FF41F018160FFF75BFF4EF60850CEF26A
:1006A00000004FF00061016080BD000080B540F2A5
:1006B0009500C2F20000017881F001020270002072
:1006C0000021FFF75FFE80BD80B540F29600C2F2C8
:1006D0000000017881F00102027000200121FFF783
:1006E00051FE80BD80B540F29700C2F20000017853
:1006F00081F00102027000200221FFF743FE80BD5D
:10070000FFF7B4FE02200221FFF7BAFE0220032108
:10071000FFF7B6FE02200421FFF7B2FE0020002101
:100720000222FFF7B1FD002001210222FFF7ACFDFC
:10073000002002210222FFF7A7FD40F2AD62C0F6C1
:10074000000200204FF47A710023FFF773FE40F29D
:10075000C962C0F6000201204FF4FA610123FFF7DD
:1007600069FE40F2E562C0F60002022040F6B831B0
:100770000223FFF75FFEFFF76DFE00BFFEE70000FC
:1007800090070008000000209806000028010008DB
:040000050800016D81
:00000001FF
